{
  "_format": "hh-sol-artifact-1",
  "contractName": "TokenUpgrader",
  "sourceName": "contracts/TokenUpgrader.sol",
  "abi": [
    {
      "inputs": [
        {
          "internalType": "address",
          "name": "initialAdmin",
          "type": "address"
        }
      ],
      "stateMutability": "nonpayable",
      "type": "constructor"
    },
    {
      "inputs": [
        {
          "internalType": "address",
          "name": "target",
          "type": "address"
        }
      ],
      "name": "AddressEmptyCode",
      "type": "error"
    },
    {
      "inputs": [
        {
          "internalType": "address",
          "name": "account",
          "type": "address"
        }
      ],
      "name": "AddressInsufficientBalance",
      "type": "error"
    },
    {
      "inputs": [],
      "name": "AlreadyInitialized",
      "type": "error"
    },
    {
      "inputs": [],
      "name": "EnforcedPause",
      "type": "error"
    },
    {
      "inputs": [],
      "name": "ExpectedPause",
      "type": "error"
    },
    {
      "inputs": [],
      "name": "FailedInnerCall",
      "type": "error"
    },
    {
      "inputs": [],
      "name": "FailedToSendEther",
      "type": "error"
    },
    {
      "inputs": [],
      "name": "InvalidReceiverAddress",
      "type": "error"
    },
    {
      "inputs": [
        {
          "internalType": "address",
          "name": "owner",
          "type": "address"
        }
      ],
      "name": "OwnableInvalidOwner",
      "type": "error"
    },
    {
      "inputs": [
        {
          "internalType": "address",
          "name": "account",
          "type": "address"
        }
      ],
      "name": "OwnableUnauthorizedAccount",
      "type": "error"
    },
    {
      "inputs": [
        {
          "internalType": "address",
          "name": "token",
          "type": "address"
        }
      ],
      "name": "SafeERC20FailedOperation",
      "type": "error"
    },
    {
      "inputs": [],
      "name": "Uninitialized",
      "type": "error"
    },
    {
      "anonymous": false,
      "inputs": [
        {
          "indexed": true,
          "internalType": "address",
          "name": "previousOwner",
          "type": "address"
        },
        {
          "indexed": true,
          "internalType": "address",
          "name": "newOwner",
          "type": "address"
        }
      ],
      "name": "OwnershipTransferStarted",
      "type": "event"
    },
    {
      "anonymous": false,
      "inputs": [
        {
          "indexed": true,
          "internalType": "address",
          "name": "previousOwner",
          "type": "address"
        },
        {
          "indexed": true,
          "internalType": "address",
          "name": "newOwner",
          "type": "address"
        }
      ],
      "name": "OwnershipTransferred",
      "type": "event"
    },
    {
      "anonymous": false,
      "inputs": [
        {
          "indexed": false,
          "internalType": "address",
          "name": "account",
          "type": "address"
        }
      ],
      "name": "Paused",
      "type": "event"
    },
    {
      "anonymous": false,
      "inputs": [
        {
          "indexed": false,
          "internalType": "address",
          "name": "account",
          "type": "address"
        }
      ],
      "name": "Unpaused",
      "type": "event"
    },
    {
      "inputs": [],
      "name": "DEAD_ADDRESS",
      "outputs": [
        {
          "internalType": "address",
          "name": "",
          "type": "address"
        }
      ],
      "stateMutability": "view",
      "type": "function"
    },
    {
      "inputs": [],
      "name": "SPLIT_RATIO",
      "outputs": [
        {
          "internalType": "uint256",
          "name": "",
          "type": "uint256"
        }
      ],
      "stateMutability": "view",
      "type": "function"
    },
    {
      "inputs": [],
      "name": "acceptOwnership",
      "outputs": [],
      "stateMutability": "nonpayable",
      "type": "function"
    },
    {
      "inputs": [
        {
          "internalType": "address",
          "name": "oldTokenAddress",
          "type": "address"
        },
        {
          "internalType": "address",
          "name": "newTokenAddress",
          "type": "address"
        }
      ],
      "name": "initialize",
      "outputs": [],
      "stateMutability": "nonpayable",
      "type": "function"
    },
    {
      "inputs": [],
      "name": "initialized",
      "outputs": [
        {
          "internalType": "bool",
          "name": "",
          "type": "bool"
        }
      ],
      "stateMutability": "view",
      "type": "function"
    },
    {
      "inputs": [],
      "name": "newToken",
      "outputs": [
        {
          "internalType": "contract IERC20",
          "name": "",
          "type": "address"
        }
      ],
      "stateMutability": "view",
      "type": "function"
    },
    {
      "inputs": [],
      "name": "oldToken",
      "outputs": [
        {
          "internalType": "contract IERC20",
          "name": "",
          "type": "address"
        }
      ],
      "stateMutability": "view",
      "type": "function"
    },
    {
      "inputs": [],
      "name": "owner",
      "outputs": [
        {
          "internalType": "address",
          "name": "",
          "type": "address"
        }
      ],
      "stateMutability": "view",
      "type": "function"
    },
    {
      "inputs": [],
      "name": "pause",
      "outputs": [],
      "stateMutability": "nonpayable",
      "type": "function"
    },
    {
      "inputs": [],
      "name": "paused",
      "outputs": [
        {
          "internalType": "bool",
          "name": "",
          "type": "bool"
        }
      ],
      "stateMutability": "view",
      "type": "function"
    },
    {
      "inputs": [],
      "name": "pendingOwner",
      "outputs": [
        {
          "internalType": "address",
          "name": "",
          "type": "address"
        }
      ],
      "stateMutability": "view",
      "type": "function"
    },
    {
      "inputs": [],
      "name": "renounceOwnership",
      "outputs": [],
      "stateMutability": "nonpayable",
      "type": "function"
    },
    {
      "inputs": [
        {
          "internalType": "address",
          "name": "newOwner",
          "type": "address"
        }
      ],
      "name": "transferOwnership",
      "outputs": [],
      "stateMutability": "nonpayable",
      "type": "function"
    },
    {
      "inputs": [],
      "name": "unpause",
      "outputs": [],
      "stateMutability": "nonpayable",
      "type": "function"
    },
    {
      "inputs": [
        {
          "internalType": "uint256",
          "name": "amount",
          "type": "uint256"
        }
      ],
      "name": "upgradeToken",
      "outputs": [
        {
          "internalType": "bool",
          "name": "",
          "type": "bool"
        }
      ],
      "stateMutability": "nonpayable",
      "type": "function"
    },
    {
      "inputs": [
        {
          "internalType": "uint256",
          "name": "amount",
          "type": "uint256"
        },
        {
          "internalType": "uint256",
          "name": "deadline",
          "type": "uint256"
        },
        {
          "internalType": "uint8",
          "name": "v",
          "type": "uint8"
        },
        {
          "internalType": "bytes32",
          "name": "r",
          "type": "bytes32"
        },
        {
          "internalType": "bytes32",
          "name": "s",
          "type": "bytes32"
        }
      ],
      "name": "upgradeTokenByPermit",
      "outputs": [
        {
          "internalType": "bool",
          "name": "",
          "type": "bool"
        }
      ],
      "stateMutability": "nonpayable",
      "type": "function"
    },
    {
      "inputs": [
        {
          "internalType": "address",
          "name": "token",
          "type": "address"
        },
        {
          "internalType": "address",
          "name": "to",
          "type": "address"
        },
        {
          "internalType": "uint256",
          "name": "amount",
          "type": "uint256"
        }
      ],
      "name": "withdrawERC20Token",
      "outputs": [],
      "stateMutability": "nonpayable",
      "type": "function"
    },
    {
      "inputs": [
        {
          "internalType": "address",
          "name": "to",
          "type": "address"
        },
        {
          "internalType": "uint256",
          "name": "amount",
          "type": "uint256"
        }
      ],
      "name": "withdrawETH",
      "outputs": [],
      "stateMutability": "nonpayable",
      "type": "function"
    }
  ],
  "bytecode": "0x608060405234801561001057600080fd5b50604051610f23380380610f2383398101604081905261002f916100e7565b806001600160a01b03811661005e57604051631e4fbdf760e01b81526000600482015260240160405180910390fd5b6100678161007b565b50506001805460ff60a01b19169055610117565b600180546001600160a01b031916905561009481610097565b50565b600080546001600160a01b038381166001600160a01b0319831681178455604051919092169283917f8be0079c531659141344cd1fd0a4f28419497f9722a3daafe3b4186f6b6457e09190a35050565b6000602082840312156100f957600080fd5b81516001600160a01b038116811461011057600080fd5b9392505050565b610dfd806101266000396000f3fe608060405234801561001057600080fd5b50600436106101365760003560e01c8063715018a6116100b2578063aa727c3211610081578063c42bd05a11610066578063c42bd05a14610252578063e30c397814610265578063f2fde38b1461027657600080fd5b8063aa727c3214610229578063b31c710a1461023f57600080fd5b8063715018a61461020057806379ba5097146102085780638456cb59146102105780638da5cb5b1461021857600080fd5b80634782f779116101095780634e6fd6c4116100ee5780634e6fd6c4146101ba57806357d1b31b146101db5780635c975abb146101ee57600080fd5b80634782f77914610194578063485cc955146101a757600080fd5b8063158ef93e1461013b57806332309a78146101645780633f4ba83a1461017757806346261fa914610181575b600080fd5b60035461014f90600160a01b900460ff1681565b60405190151581526020015b60405180910390f35b61014f610172366004610c05565b610289565b61017f61031c565b005b61014f61018f366004610c1e565b61032e565b61017f6101a2366004610c84565b61044c565b61017f6101b5366004610cae565b610526565b6101c361dead81565b6040516001600160a01b03909116815260200161015b565b61017f6101e9366004610ce1565b6105d4565b600154600160a01b900460ff1661014f565b61017f610630565b61017f610642565b61017f6106a4565b6000546001600160a01b03166101c3565b610231603c81565b60405190815260200161015b565b6002546101c3906001600160a01b031681565b6003546101c3906001600160a01b031681565b6001546001600160a01b03166101c3565b61017f610284366004610d1d565b6106b4565b600354600090600160a01b900460ff166102cf576040517f1c72fad400000000000000000000000000000000000000000000000000000000815260040160405180910390fd5b6102d7610732565b6002546102f1906001600160a01b03163361dead85610776565b61031333610300603c85610d38565b6003546001600160a01b031691906107f8565b5060015b919050565b610324610829565b61032c61086f565b565b600354600090600160a01b900460ff16610374576040517f1c72fad400000000000000000000000000000000000000000000000000000000815260040160405180910390fd5b61037c610732565b6002546040517fd505accf000000000000000000000000000000000000000000000000000000008152336004820152306024820152604481018890526064810187905260ff8616608482015260a4810185905260c481018490526001600160a01b039091169063d505accf9060e401600060405180830381600087803b15801561040557600080fd5b505af1925050508015610416575060015b50600254610431906001600160a01b03163361dead89610776565b61044033610300603c89610d38565b50600195945050505050565b610454610829565b6001600160a01b038216610494576040517fa05ff47e00000000000000000000000000000000000000000000000000000000815260040160405180910390fd5b6000826001600160a01b03168260405160006040518083038185875af1925050503d80600081146104e1576040519150601f19603f3d011682016040523d82523d6000602084013e6104e6565b606091505b5050905080610521576040517fdcf35db000000000000000000000000000000000000000000000000000000000815260040160405180910390fd5b505050565b61052e610829565b600354600160a01b900460ff1615610572576040517f0dc149f000000000000000000000000000000000000000000000000000000000815260040160405180910390fd5b60038054600280546001600160a01b0395861673ffffffffffffffffffffffffffffffffffffffff19909116179055919092167fffffffffffffffffffffff00000000000000000000000000000000000000000090911617600160a01b179055565b6105dc610829565b6001600160a01b03821661061c576040517fa05ff47e00000000000000000000000000000000000000000000000000000000815260040160405180910390fd5b6105216001600160a01b03841683836107f8565b610638610829565b61032c60006108df565b60015433906001600160a01b03168114610698576040517f118cdaa70000000000000000000000000000000000000000000000000000000081526001600160a01b03821660048201526024015b60405180910390fd5b6106a1816108df565b50565b6106ac610829565b61032c610905565b6106bc610829565b600180546001600160a01b03831673ffffffffffffffffffffffffffffffffffffffff1990911681179091556106fa6000546001600160a01b031690565b6001600160a01b03167f38d16b8cac22d99fc7c124b9cd0de2d3fa1faef420bfe791d8c362d765e2270060405160405180910390a350565b600154600160a01b900460ff161561032c576040517fd93c066500000000000000000000000000000000000000000000000000000000815260040160405180910390fd5b6040516001600160a01b0384811660248301528381166044830152606482018390526107f29186918216906323b872dd906084015b604051602081830303815290604052915060e01b6020820180517bffffffffffffffffffffffffffffffffffffffffffffffffffffffff8381831617835250505050610963565b50505050565b6040516001600160a01b0383811660248301526044820183905261052191859182169063a9059cbb906064016107ab565b6000546001600160a01b0316331461032c576040517f118cdaa700000000000000000000000000000000000000000000000000000000815233600482015260240161068f565b6108776109df565b600180547fffffffffffffffffffffff00ffffffffffffffffffffffffffffffffffffffff1690557f5db9ee0a495bf2e6ff9c91a7834c1ba4fdd244a5e8aa4e537bd38aeae4b073aa335b6040516001600160a01b03909116815260200160405180910390a1565b6001805473ffffffffffffffffffffffffffffffffffffffff191690556106a181610a22565b61090d610732565b600180547fffffffffffffffffffffff00ffffffffffffffffffffffffffffffffffffffff16600160a01b1790557f62e78cea01bee320cd4e420270b5ea74000d11b0c9f74754ebdbfc544b05a2586108c23390565b60006109786001600160a01b03841683610a7f565b9050805160001415801561099d57508080602001905181019061099b9190610d76565b155b15610521576040517f5274afe70000000000000000000000000000000000000000000000000000000081526001600160a01b038416600482015260240161068f565b600154600160a01b900460ff1661032c576040517f8dfc202b00000000000000000000000000000000000000000000000000000000815260040160405180910390fd5b600080546001600160a01b0383811673ffffffffffffffffffffffffffffffffffffffff19831681178455604051919092169283917f8be0079c531659141344cd1fd0a4f28419497f9722a3daafe3b4186f6b6457e09190a35050565b6060610a8d83836000610a96565b90505b92915050565b606081471015610ad4576040517fcd78605900000000000000000000000000000000000000000000000000000000815230600482015260240161068f565b600080856001600160a01b03168486604051610af09190610d98565b60006040518083038185875af1925050503d8060008114610b2d576040519150601f19603f3d011682016040523d82523d6000602084013e610b32565b606091505b5091509150610b42868383610b4e565b925050505b9392505050565b606082610b6357610b5e82610bc3565b610b47565b8151158015610b7a57506001600160a01b0384163b155b15610bbc576040517f9996b3150000000000000000000000000000000000000000000000000000000081526001600160a01b038516600482015260240161068f565b5080610b47565b805115610bd35780518082602001fd5b6040517f1425ea4200000000000000000000000000000000000000000000000000000000815260040160405180910390fd5b600060208284031215610c1757600080fd5b5035919050565b600080600080600060a08688031215610c3657600080fd5b8535945060208601359350604086013560ff81168114610c5557600080fd5b94979396509394606081013594506080013592915050565b80356001600160a01b038116811461031757600080fd5b60008060408385031215610c9757600080fd5b610ca083610c6d565b946020939093013593505050565b60008060408385031215610cc157600080fd5b610cca83610c6d565b9150610cd860208401610c6d565b90509250929050565b600080600060608486031215610cf657600080fd5b610cff84610c6d565b9250610d0d60208501610c6d565b9150604084013590509250925092565b600060208284031215610d2f57600080fd5b610a8d82610c6d565b8082028115828204841417610a90577f4e487b7100000000000000000000000000000000000000000000000000000000600052601160045260246000fd5b600060208284031215610d8857600080fd5b81518015158114610b4757600080fd5b6000825160005b81811015610db95760208186018101518583015201610d9f565b50600092019182525091905056fea26469706673582212205080b7f2f1525e585df4b53adffa0b33a8fa4c42405e97e05ca42e0b75225a6a64736f6c63430008180033",
  "linkReferences": {},
  "deployedLinkReferences": {}
}