{
  "_format": "hh-sol-artifact-1",
  "contractName": "TokenUpgraderBSC",
  "sourceName": "contracts/TokenUpgraderBSC.sol",
  "abi": [
    {
      "inputs": [
        {
          "internalType": "address",
          "name": "initialAdmin",
          "type": "address"
        }
      ],
      "stateMutability": "nonpayable",
      "type": "constructor"
    },
    {
      "inputs": [
        {
          "internalType": "address",
          "name": "target",
          "type": "address"
        }
      ],
      "name": "AddressEmptyCode",
      "type": "error"
    },
    {
      "inputs": [
        {
          "internalType": "address",
          "name": "account",
          "type": "address"
        }
      ],
      "name": "AddressInsufficientBalance",
      "type": "error"
    },
    {
      "inputs": [],
      "name": "AlreadyInitialized",
      "type": "error"
    },
    {
      "inputs": [],
      "name": "EnforcedPause",
      "type": "error"
    },
    {
      "inputs": [],
      "name": "ExpectedPause",
      "type": "error"
    },
    {
      "inputs": [],
      "name": "FailedInnerCall",
      "type": "error"
    },
    {
      "inputs": [],
      "name": "FailedToSendEther",
      "type": "error"
    },
    {
      "inputs": [],
      "name": "InvalidReceiverAddress",
      "type": "error"
    },
    {
      "inputs": [
        {
          "internalType": "address",
          "name": "owner",
          "type": "address"
        }
      ],
      "name": "OwnableInvalidOwner",
      "type": "error"
    },
    {
      "inputs": [
        {
          "internalType": "address",
          "name": "account",
          "type": "address"
        }
      ],
      "name": "OwnableUnauthorizedAccount",
      "type": "error"
    },
    {
      "inputs": [
        {
          "internalType": "address",
          "name": "token",
          "type": "address"
        }
      ],
      "name": "SafeERC20FailedOperation",
      "type": "error"
    },
    {
      "inputs": [],
      "name": "Uninitialized",
      "type": "error"
    },
    {
      "anonymous": false,
      "inputs": [
        {
          "indexed": true,
          "internalType": "address",
          "name": "previousOwner",
          "type": "address"
        },
        {
          "indexed": true,
          "internalType": "address",
          "name": "newOwner",
          "type": "address"
        }
      ],
      "name": "OwnershipTransferStarted",
      "type": "event"
    },
    {
      "anonymous": false,
      "inputs": [
        {
          "indexed": true,
          "internalType": "address",
          "name": "previousOwner",
          "type": "address"
        },
        {
          "indexed": true,
          "internalType": "address",
          "name": "newOwner",
          "type": "address"
        }
      ],
      "name": "OwnershipTransferred",
      "type": "event"
    },
    {
      "anonymous": false,
      "inputs": [
        {
          "indexed": false,
          "internalType": "address",
          "name": "account",
          "type": "address"
        }
      ],
      "name": "Paused",
      "type": "event"
    },
    {
      "anonymous": false,
      "inputs": [
        {
          "indexed": false,
          "internalType": "address",
          "name": "account",
          "type": "address"
        }
      ],
      "name": "Unpaused",
      "type": "event"
    },
    {
      "inputs": [],
      "name": "SPLIT_RATIO",
      "outputs": [
        {
          "internalType": "uint256",
          "name": "",
          "type": "uint256"
        }
      ],
      "stateMutability": "view",
      "type": "function"
    },
    {
      "inputs": [],
      "name": "acceptOwnership",
      "outputs": [],
      "stateMutability": "nonpayable",
      "type": "function"
    },
    {
      "inputs": [
        {
          "internalType": "address",
          "name": "oldTokenAddress",
          "type": "address"
        },
        {
          "internalType": "address",
          "name": "newTokenAddress",
          "type": "address"
        }
      ],
      "name": "initialize",
      "outputs": [],
      "stateMutability": "nonpayable",
      "type": "function"
    },
    {
      "inputs": [],
      "name": "initialized",
      "outputs": [
        {
          "internalType": "bool",
          "name": "",
          "type": "bool"
        }
      ],
      "stateMutability": "view",
      "type": "function"
    },
    {
      "inputs": [],
      "name": "newToken",
      "outputs": [
        {
          "internalType": "contract IERC20",
          "name": "",
          "type": "address"
        }
      ],
      "stateMutability": "view",
      "type": "function"
    },
    {
      "inputs": [],
      "name": "oldToken",
      "outputs": [
        {
          "internalType": "contract IERC20",
          "name": "",
          "type": "address"
        }
      ],
      "stateMutability": "view",
      "type": "function"
    },
    {
      "inputs": [],
      "name": "owner",
      "outputs": [
        {
          "internalType": "address",
          "name": "",
          "type": "address"
        }
      ],
      "stateMutability": "view",
      "type": "function"
    },
    {
      "inputs": [],
      "name": "pause",
      "outputs": [],
      "stateMutability": "nonpayable",
      "type": "function"
    },
    {
      "inputs": [],
      "name": "paused",
      "outputs": [
        {
          "internalType": "bool",
          "name": "",
          "type": "bool"
        }
      ],
      "stateMutability": "view",
      "type": "function"
    },
    {
      "inputs": [],
      "name": "pendingOwner",
      "outputs": [
        {
          "internalType": "address",
          "name": "",
          "type": "address"
        }
      ],
      "stateMutability": "view",
      "type": "function"
    },
    {
      "inputs": [],
      "name": "renounceOwnership",
      "outputs": [],
      "stateMutability": "nonpayable",
      "type": "function"
    },
    {
      "inputs": [
        {
          "internalType": "address",
          "name": "newOwner",
          "type": "address"
        }
      ],
      "name": "transferOwnership",
      "outputs": [],
      "stateMutability": "nonpayable",
      "type": "function"
    },
    {
      "inputs": [],
      "name": "unpause",
      "outputs": [],
      "stateMutability": "nonpayable",
      "type": "function"
    },
    {
      "inputs": [
        {
          "internalType": "uint256",
          "name": "amount",
          "type": "uint256"
        }
      ],
      "name": "upgradeToken",
      "outputs": [
        {
          "internalType": "bool",
          "name": "",
          "type": "bool"
        }
      ],
      "stateMutability": "nonpayable",
      "type": "function"
    },
    {
      "inputs": [
        {
          "internalType": "uint256",
          "name": "amount",
          "type": "uint256"
        },
        {
          "internalType": "uint256",
          "name": "deadline",
          "type": "uint256"
        },
        {
          "internalType": "uint8",
          "name": "v",
          "type": "uint8"
        },
        {
          "internalType": "bytes32",
          "name": "r",
          "type": "bytes32"
        },
        {
          "internalType": "bytes32",
          "name": "s",
          "type": "bytes32"
        }
      ],
      "name": "upgradeTokenByPermit",
      "outputs": [
        {
          "internalType": "bool",
          "name": "",
          "type": "bool"
        }
      ],
      "stateMutability": "nonpayable",
      "type": "function"
    },
    {
      "inputs": [
        {
          "internalType": "address",
          "name": "token",
          "type": "address"
        },
        {
          "internalType": "address",
          "name": "to",
          "type": "address"
        },
        {
          "internalType": "uint256",
          "name": "amount",
          "type": "uint256"
        }
      ],
      "name": "withdrawERC20Token",
      "outputs": [],
      "stateMutability": "nonpayable",
      "type": "function"
    },
    {
      "inputs": [
        {
          "internalType": "address",
          "name": "to",
          "type": "address"
        },
        {
          "internalType": "uint256",
          "name": "amount",
          "type": "uint256"
        }
      ],
      "name": "withdrawETH",
      "outputs": [],
      "stateMutability": "nonpayable",
      "type": "function"
    }
  ],
  "bytecode": "0x608060405234801561001057600080fd5b50604051610f1b380380610f1b83398101604081905261002f916100e7565b806001600160a01b03811661005e57604051631e4fbdf760e01b81526000600482015260240160405180910390fd5b6100678161007b565b50506001805460ff60a01b19169055610117565b600180546001600160a01b031916905561009481610097565b50565b600080546001600160a01b038381166001600160a01b0319831681178455604051919092169283917f8be0079c531659141344cd1fd0a4f28419497f9722a3daafe3b4186f6b6457e09190a35050565b6000602082840312156100f957600080fd5b81516001600160a01b038116811461011057600080fd5b9392505050565b610df5806101266000396000f3fe608060405234801561001057600080fd5b506004361061011b5760003560e01c8063715018a6116100b2578063aa727c3211610081578063c42bd05a11610066578063c42bd05a1461022a578063e30c39781461023d578063f2fde38b1461024e57600080fd5b8063aa727c3214610201578063b31c710a1461021757600080fd5b8063715018a6146101c457806379ba5097146101cc5780638456cb59146101d45780638da5cb5b146101dc57600080fd5b80634782f779116100ee5780634782f77914610179578063485cc9551461018c57806357d1b31b1461019f5780635c975abb146101b257600080fd5b8063158ef93e1461012057806332309a78146101495780633f4ba83a1461015c57806346261fa914610166575b600080fd5b60035461013490600160a01b900460ff1681565b60405190151581526020015b60405180910390f35b610134610157366004610bfd565b610261565b610164610304565b005b610134610174366004610c16565b610316565b610164610187366004610c7c565b610444565b61016461019a366004610ca6565b61051e565b6101646101ad366004610cd9565b6105cc565b600154600160a01b900460ff16610134565b610164610628565b61016461063a565b61016461069c565b6000546001600160a01b03165b6040516001600160a01b039091168152602001610140565b610209603c81565b604051908152602001610140565b6002546101e9906001600160a01b031681565b6003546101e9906001600160a01b031681565b6001546001600160a01b03166101e9565b61016461025c366004610d15565b6106ac565b600354600090600160a01b900460ff166102a7576040517f1c72fad400000000000000000000000000000000000000000000000000000000815260040160405180910390fd5b6102af61072a565b6102d9336102c56000546001600160a01b031690565b6002546001600160a01b031691908561076e565b6102fb336102e8603c85610d30565b6003546001600160a01b031691906107f0565b5060015b919050565b61030c610821565b610314610867565b565b600354600090600160a01b900460ff1661035c576040517f1c72fad400000000000000000000000000000000000000000000000000000000815260040160405180910390fd5b61036461072a565b6002546040517fd505accf000000000000000000000000000000000000000000000000000000008152336004820152306024820152604481018890526064810187905260ff8616608482015260a4810185905260c481018490526001600160a01b039091169063d505accf9060e401600060405180830381600087803b1580156103ed57600080fd5b505af19250505080156103fe575060015b50610429336104156000546001600160a01b031690565b6002546001600160a01b031691908961076e565b610438336102e8603c89610d30565b50600195945050505050565b61044c610821565b6001600160a01b03821661048c576040517fa05ff47e00000000000000000000000000000000000000000000000000000000815260040160405180910390fd5b6000826001600160a01b03168260405160006040518083038185875af1925050503d80600081146104d9576040519150601f19603f3d011682016040523d82523d6000602084013e6104de565b606091505b5050905080610519576040517fdcf35db000000000000000000000000000000000000000000000000000000000815260040160405180910390fd5b505050565b610526610821565b600354600160a01b900460ff161561056a576040517f0dc149f000000000000000000000000000000000000000000000000000000000815260040160405180910390fd5b60038054600280546001600160a01b0395861673ffffffffffffffffffffffffffffffffffffffff19909116179055919092167fffffffffffffffffffffff00000000000000000000000000000000000000000090911617600160a01b179055565b6105d4610821565b6001600160a01b038216610614576040517fa05ff47e00000000000000000000000000000000000000000000000000000000815260040160405180910390fd5b6105196001600160a01b03841683836107f0565b610630610821565b61031460006108d7565b60015433906001600160a01b03168114610690576040517f118cdaa70000000000000000000000000000000000000000000000000000000081526001600160a01b03821660048201526024015b60405180910390fd5b610699816108d7565b50565b6106a4610821565b6103146108fd565b6106b4610821565b600180546001600160a01b03831673ffffffffffffffffffffffffffffffffffffffff1990911681179091556106f26000546001600160a01b031690565b6001600160a01b03167f38d16b8cac22d99fc7c124b9cd0de2d3fa1faef420bfe791d8c362d765e2270060405160405180910390a350565b600154600160a01b900460ff1615610314576040517fd93c066500000000000000000000000000000000000000000000000000000000815260040160405180910390fd5b6040516001600160a01b0384811660248301528381166044830152606482018390526107ea9186918216906323b872dd906084015b604051602081830303815290604052915060e01b6020820180517bffffffffffffffffffffffffffffffffffffffffffffffffffffffff838183161783525050505061095b565b50505050565b6040516001600160a01b0383811660248301526044820183905261051991859182169063a9059cbb906064016107a3565b6000546001600160a01b03163314610314576040517f118cdaa7000000000000000000000000000000000000000000000000000000008152336004820152602401610687565b61086f6109d7565b600180547fffffffffffffffffffffff00ffffffffffffffffffffffffffffffffffffffff1690557f5db9ee0a495bf2e6ff9c91a7834c1ba4fdd244a5e8aa4e537bd38aeae4b073aa335b6040516001600160a01b03909116815260200160405180910390a1565b6001805473ffffffffffffffffffffffffffffffffffffffff1916905561069981610a1a565b61090561072a565b600180547fffffffffffffffffffffff00ffffffffffffffffffffffffffffffffffffffff16600160a01b1790557f62e78cea01bee320cd4e420270b5ea74000d11b0c9f74754ebdbfc544b05a2586108ba3390565b60006109706001600160a01b03841683610a77565b905080516000141580156109955750808060200190518101906109939190610d6e565b155b15610519576040517f5274afe70000000000000000000000000000000000000000000000000000000081526001600160a01b0384166004820152602401610687565b600154600160a01b900460ff16610314576040517f8dfc202b00000000000000000000000000000000000000000000000000000000815260040160405180910390fd5b600080546001600160a01b0383811673ffffffffffffffffffffffffffffffffffffffff19831681178455604051919092169283917f8be0079c531659141344cd1fd0a4f28419497f9722a3daafe3b4186f6b6457e09190a35050565b6060610a8583836000610a8e565b90505b92915050565b606081471015610acc576040517fcd786059000000000000000000000000000000000000000000000000000000008152306004820152602401610687565b600080856001600160a01b03168486604051610ae89190610d90565b60006040518083038185875af1925050503d8060008114610b25576040519150601f19603f3d011682016040523d82523d6000602084013e610b2a565b606091505b5091509150610b3a868383610b46565b925050505b9392505050565b606082610b5b57610b5682610bbb565b610b3f565b8151158015610b7257506001600160a01b0384163b155b15610bb4576040517f9996b3150000000000000000000000000000000000000000000000000000000081526001600160a01b0385166004820152602401610687565b5080610b3f565b805115610bcb5780518082602001fd5b6040517f1425ea4200000000000000000000000000000000000000000000000000000000815260040160405180910390fd5b600060208284031215610c0f57600080fd5b5035919050565b600080600080600060a08688031215610c2e57600080fd5b8535945060208601359350604086013560ff81168114610c4d57600080fd5b94979396509394606081013594506080013592915050565b80356001600160a01b03811681146102ff57600080fd5b60008060408385031215610c8f57600080fd5b610c9883610c65565b946020939093013593505050565b60008060408385031215610cb957600080fd5b610cc283610c65565b9150610cd060208401610c65565b90509250929050565b600080600060608486031215610cee57600080fd5b610cf784610c65565b9250610d0560208501610c65565b9150604084013590509250925092565b600060208284031215610d2757600080fd5b610a8582610c65565b8082028115828204841417610a88577f4e487b7100000000000000000000000000000000000000000000000000000000600052601160045260246000fd5b600060208284031215610d8057600080fd5b81518015158114610b3f57600080fd5b6000825160005b81811015610db15760208186018101518583015201610d97565b50600092019182525091905056fea2646970667358221220e00816680f1fc7552feaceb2bd6735c60619c179abc34d459d5252e2f6bbca8064736f6c63430008180033",
  "linkReferences": {},
  "deployedLinkReferences": {}
}