{
  "_format": "hh-sol-artifact-1",
  "contractName": "WrappedG",
  "sourceName": "contracts/WrappedG.sol",
  "abi": [
    {
      "inputs": [],
      "stateMutability": "nonpayable",
      "type": "constructor"
    },
    {
      "inputs": [],
      "name": "ECDSAInvalidSignature",
      "type": "error"
    },
    {
      "inputs": [
        {
          "internalType": "uint256",
          "name": "length",
          "type": "uint256"
        }
      ],
      "name": "ECDSAInvalidSignatureLength",
      "type": "error"
    },
    {
      "inputs": [
        {
          "internalType": "bytes32",
          "name": "s",
          "type": "bytes32"
        }
      ],
      "name": "ECDSAInvalidSignatureS",
      "type": "error"
    },
    {
      "inputs": [
        {
          "internalType": "address",
          "name": "spender",
          "type": "address"
        },
        {
          "internalType": "uint256",
          "name": "allowance",
          "type": "uint256"
        },
        {
          "internalType": "uint256",
          "name": "needed",
          "type": "uint256"
        }
      ],
      "name": "ERC20InsufficientAllowance",
      "type": "error"
    },
    {
      "inputs": [
        {
          "internalType": "address",
          "name": "sender",
          "type": "address"
        },
        {
          "internalType": "uint256",
          "name": "balance",
          "type": "uint256"
        },
        {
          "internalType": "uint256",
          "name": "needed",
          "type": "uint256"
        }
      ],
      "name": "ERC20InsufficientBalance",
      "type": "error"
    },
    {
      "inputs": [
        {
          "internalType": "address",
          "name": "approver",
          "type": "address"
        }
      ],
      "name": "ERC20InvalidApprover",
      "type": "error"
    },
    {
      "inputs": [
        {
          "internalType": "address",
          "name": "receiver",
          "type": "address"
        }
      ],
      "name": "ERC20InvalidReceiver",
      "type": "error"
    },
    {
      "inputs": [
        {
          "internalType": "address",
          "name": "sender",
          "type": "address"
        }
      ],
      "name": "ERC20InvalidSender",
      "type": "error"
    },
    {
      "inputs": [
        {
          "internalType": "address",
          "name": "spender",
          "type": "address"
        }
      ],
      "name": "ERC20InvalidSpender",
      "type": "error"
    },
    {
      "inputs": [
        {
          "internalType": "uint256",
          "name": "deadline",
          "type": "uint256"
        }
      ],
      "name": "ERC2612ExpiredSignature",
      "type": "error"
    },
    {
      "inputs": [
        {
          "internalType": "address",
          "name": "signer",
          "type": "address"
        },
        {
          "internalType": "address",
          "name": "owner",
          "type": "address"
        }
      ],
      "name": "ERC2612InvalidSigner",
      "type": "error"
    },
    {
      "inputs": [],
      "name": "FAIL_TRANSFER",
      "type": "error"
    },
    {
      "inputs": [
        {
          "internalType": "address",
          "name": "account",
          "type": "address"
        },
        {
          "internalType": "uint256",
          "name": "currentNonce",
          "type": "uint256"
        }
      ],
      "name": "InvalidAccountNonce",
      "type": "error"
    },
    {
      "inputs": [],
      "name": "InvalidShortString",
      "type": "error"
    },
    {
      "inputs": [
        {
          "internalType": "string",
          "name": "str",
          "type": "string"
        }
      ],
      "name": "StringTooLong",
      "type": "error"
    },
    {
      "anonymous": false,
      "inputs": [
        {
          "indexed": true,
          "internalType": "address",
          "name": "owner",
          "type": "address"
        },
        {
          "indexed": true,
          "internalType": "address",
          "name": "spender",
          "type": "address"
        },
        {
          "indexed": false,
          "internalType": "uint256",
          "name": "value",
          "type": "uint256"
        }
      ],
      "name": "Approval",
      "type": "event"
    },
    {
      "anonymous": false,
      "inputs": [],
      "name": "EIP712DomainChanged",
      "type": "event"
    },
    {
      "anonymous": false,
      "inputs": [
        {
          "indexed": true,
          "internalType": "address",
          "name": "from",
          "type": "address"
        },
        {
          "indexed": true,
          "internalType": "address",
          "name": "to",
          "type": "address"
        },
        {
          "indexed": false,
          "internalType": "uint256",
          "name": "value",
          "type": "uint256"
        }
      ],
      "name": "Transfer",
      "type": "event"
    },
    {
      "inputs": [],
      "name": "DOMAIN_SEPARATOR",
      "outputs": [
        {
          "internalType": "bytes32",
          "name": "",
          "type": "bytes32"
        }
      ],
      "stateMutability": "view",
      "type": "function"
    },
    {
      "inputs": [
        {
          "internalType": "address",
          "name": "owner",
          "type": "address"
        },
        {
          "internalType": "address",
          "name": "spender",
          "type": "address"
        }
      ],
      "name": "allowance",
      "outputs": [
        {
          "internalType": "uint256",
          "name": "",
          "type": "uint256"
        }
      ],
      "stateMutability": "view",
      "type": "function"
    },
    {
      "inputs": [
        {
          "internalType": "address",
          "name": "spender",
          "type": "address"
        },
        {
          "internalType": "uint256",
          "name": "value",
          "type": "uint256"
        }
      ],
      "name": "approve",
      "outputs": [
        {
          "internalType": "bool",
          "name": "",
          "type": "bool"
        }
      ],
      "stateMutability": "nonpayable",
      "type": "function"
    },
    {
      "inputs": [
        {
          "internalType": "address",
          "name": "account",
          "type": "address"
        }
      ],
      "name": "balanceOf",
      "outputs": [
        {
          "internalType": "uint256",
          "name": "",
          "type": "uint256"
        }
      ],
      "stateMutability": "view",
      "type": "function"
    },
    {
      "inputs": [],
      "name": "decimals",
      "outputs": [
        {
          "internalType": "uint8",
          "name": "",
          "type": "uint8"
        }
      ],
      "stateMutability": "view",
      "type": "function"
    },
    {
      "inputs": [],
      "name": "deposit",
      "outputs": [],
      "stateMutability": "payable",
      "type": "function"
    },
    {
      "inputs": [
        {
          "internalType": "address",
          "name": "account",
          "type": "address"
        }
      ],
      "name": "depositTo",
      "outputs": [],
      "stateMutability": "payable",
      "type": "function"
    },
    {
      "inputs": [],
      "name": "eip712Domain",
      "outputs": [
        {
          "internalType": "bytes1",
          "name": "fields",
          "type": "bytes1"
        },
        {
          "internalType": "string",
          "name": "name",
          "type": "string"
        },
        {
          "internalType": "string",
          "name": "version",
          "type": "string"
        },
        {
          "internalType": "uint256",
          "name": "chainId",
          "type": "uint256"
        },
        {
          "internalType": "address",
          "name": "verifyingContract",
          "type": "address"
        },
        {
          "internalType": "bytes32",
          "name": "salt",
          "type": "bytes32"
        },
        {
          "internalType": "uint256[]",
          "name": "extensions",
          "type": "uint256[]"
        }
      ],
      "stateMutability": "view",
      "type": "function"
    },
    {
      "inputs": [],
      "name": "name",
      "outputs": [
        {
          "internalType": "string",
          "name": "",
          "type": "string"
        }
      ],
      "stateMutability": "view",
      "type": "function"
    },
    {
      "inputs": [
        {
          "internalType": "address",
          "name": "owner",
          "type": "address"
        }
      ],
      "name": "nonces",
      "outputs": [
        {
          "internalType": "uint256",
          "name": "",
          "type": "uint256"
        }
      ],
      "stateMutability": "view",
      "type": "function"
    },
    {
      "inputs": [
        {
          "internalType": "address",
          "name": "owner",
          "type": "address"
        },
        {
          "internalType": "address",
          "name": "spender",
          "type": "address"
        },
        {
          "internalType": "uint256",
          "name": "value",
          "type": "uint256"
        },
        {
          "internalType": "uint256",
          "name": "deadline",
          "type": "uint256"
        },
        {
          "internalType": "uint8",
          "name": "v",
          "type": "uint8"
        },
        {
          "internalType": "bytes32",
          "name": "r",
          "type": "bytes32"
        },
        {
          "internalType": "bytes32",
          "name": "s",
          "type": "bytes32"
        }
      ],
      "name": "permit",
      "outputs": [],
      "stateMutability": "nonpayable",
      "type": "function"
    },
    {
      "inputs": [],
      "name": "symbol",
      "outputs": [
        {
          "internalType": "string",
          "name": "",
          "type": "string"
        }
      ],
      "stateMutability": "view",
      "type": "function"
    },
    {
      "inputs": [],
      "name": "totalSupply",
      "outputs": [
        {
          "internalType": "uint256",
          "name": "",
          "type": "uint256"
        }
      ],
      "stateMutability": "view",
      "type": "function"
    },
    {
      "inputs": [
        {
          "internalType": "address",
          "name": "to",
          "type": "address"
        },
        {
          "internalType": "uint256",
          "name": "value",
          "type": "uint256"
        }
      ],
      "name": "transfer",
      "outputs": [
        {
          "internalType": "bool",
          "name": "",
          "type": "bool"
        }
      ],
      "stateMutability": "nonpayable",
      "type": "function"
    },
    {
      "inputs": [
        {
          "internalType": "address",
          "name": "from",
          "type": "address"
        },
        {
          "internalType": "address",
          "name": "to",
          "type": "address"
        },
        {
          "internalType": "uint256",
          "name": "value",
          "type": "uint256"
        }
      ],
      "name": "transferFrom",
      "outputs": [
        {
          "internalType": "bool",
          "name": "",
          "type": "bool"
        }
      ],
      "stateMutability": "nonpayable",
      "type": "function"
    },
    {
      "inputs": [
        {
          "internalType": "uint256",
          "name": "amount",
          "type": "uint256"
        }
      ],
      "name": "withdraw",
      "outputs": [],
      "stateMutability": "nonpayable",
      "type": "function"
    },
    {
      "inputs": [
        {
          "internalType": "address",
          "name": "account",
          "type": "address"
        },
        {
          "internalType": "uint256",
          "name": "amount",
          "type": "uint256"
        }
      ],
      "name": "withdrawTo",
      "outputs": [],
      "stateMutability": "nonpayable",
      "type": "function"
    },
    {
      "stateMutability": "payable",
      "type": "receive"
    }
  ],
  "bytecode": "0x6101606040523480156200001257600080fd5b506040518060400160405280600981526020016857726170706564204760b81b81525080604051806040016040528060018152602001603160f81b8152506040518060400160405280600981526020016857726170706564204760b81b81525060405180604001604052806002815260200161774760f01b81525081600390816200009e91906200029a565b506004620000ad82826200029a565b50620000bf915083905060056200016e565b61012052620000d08160066200016e565b61014052815160208084019190912060e052815190820120610100524660a0526200015e60e05161010051604080517f8b73c3c69bb8fe3d512ecc4cf759cc79239f7b179b0ffacaa9a75d522b39400f60208201529081019290925260608201524660808201523060a082015260009060c00160405160208183030381529060405280519060200120905090565b60805250503060c05250620003dc565b60006020835110156200018e576200018683620001a7565b9050620001a1565b816200019b84826200029a565b5060ff90505b92915050565b600080829050601f81511115620001de578260405163305a27a960e01b8152600401620001d5919062000366565b60405180910390fd5b8051620001eb82620003b7565b179392505050565b634e487b7160e01b600052604160045260246000fd5b600181811c908216806200021e57607f821691505b6020821081036200023f57634e487b7160e01b600052602260045260246000fd5b50919050565b601f82111562000295576000816000526020600020601f850160051c81016020861015620002705750805b601f850160051c820191505b8181101562000291578281556001016200027c565b5050505b505050565b81516001600160401b03811115620002b657620002b6620001f3565b620002ce81620002c7845462000209565b8462000245565b602080601f831160018114620003065760008415620002ed5750858301515b600019600386901b1c1916600185901b17855562000291565b600085815260208120601f198616915b82811015620003375788860151825594840194600190910190840162000316565b5085821015620003565787850151600019600388901b60f8161c191681555b5050505050600190811b01905550565b60006020808352835180602085015260005b81811015620003965785810183015185820160400152820162000378565b506000604082860101526040601f19601f8301168501019250505092915050565b805160208083015191908110156200023f5760001960209190910360031b1b16919050565b60805160a05160c05160e051610100516101205161014051611361620004376000396000610a6501526000610a38015260006109e0015260006109b8015260006109130152600061093d0152600061096701526113616000f3fe6080604052600436106101125760003560e01c806370a08231116100a5578063a9059cbb11610074578063d0e30db011610059578063d0e30db0146102f8578063d505accf14610300578063dd62ed3e1461032057600080fd5b8063a9059cbb146102c5578063b760faf9146102e557600080fd5b806370a08231146102325780637ecebe001461026857806384b0196e1461028857806395d89b41146102b057600080fd5b806323b872dd116100e157806323b872dd146101c15780632e1a7d4d146101e1578063313ce567146102015780633644e5151461021d57600080fd5b806306fdde0314610127578063095ea7b31461015257806318160ddd14610182578063205c2878146101a157600080fd5b366101225761012033610366565b005b600080fd5b34801561013357600080fd5b5061013c610373565b604051610149919061108f565b60405180910390f35b34801561015e57600080fd5b5061017261016d3660046110c5565b610405565b6040519015158152602001610149565b34801561018e57600080fd5b506002545b604051908152602001610149565b3480156101ad57600080fd5b506101206101bc3660046110c5565b61041f565b3480156101cd57600080fd5b506101726101dc3660046110ef565b6104bb565b3480156101ed57600080fd5b506101206101fc36600461112b565b6104df565b34801561020d57600080fd5b5060405160128152602001610149565b34801561022957600080fd5b506101936104e9565b34801561023e57600080fd5b5061019361024d366004611144565b6001600160a01b031660009081526020819052604090205490565b34801561027457600080fd5b50610193610283366004611144565b6104f8565b34801561029457600080fd5b5061029d610516565b604051610149979695949392919061115f565b3480156102bc57600080fd5b5061013c610578565b3480156102d157600080fd5b506101726102e03660046110c5565b610587565b6101206102f3366004611144565b610366565b610120610595565b34801561030c57600080fd5b5061012061031b366004611214565b6105a0565b34801561032c57600080fd5b5061019361033b366004611287565b6001600160a01b03918216600090815260016020908152604080832093909416825291909152205490565b6103708134610711565b50565b606060038054610382906112ba565b80601f01602080910402602001604051908101604052809291908181526020018280546103ae906112ba565b80156103fb5780601f106103d0576101008083540402835291602001916103fb565b820191906000526020600020905b8154815290600101906020018083116103de57829003601f168201915b5050505050905090565b600033610413818585610764565b60019150505b92915050565b6104293382610771565b6000826001600160a01b03168260405160006040518083038185875af1925050503d8060008114610476576040519150601f19603f3d011682016040523d82523d6000602084013e61047b565b606091505b50509050806104b6576040517f7ae1810300000000000000000000000000000000000000000000000000000000815260040160405180910390fd5b505050565b6000336104c98582856107c0565b6104d4858585610875565b506001949350505050565b610370338261041f565b60006104f3610906565b905090565b6001600160a01b038116600090815260076020526040812054610419565b60006060806000806000606061052a610a31565b610532610a5e565b604080516000808252602082019092527f0f000000000000000000000000000000000000000000000000000000000000009b939a50919850469750309650945092509050565b606060048054610382906112ba565b600033610413818585610875565b61059e33610366565b565b834211156105e2576040517f62791302000000000000000000000000000000000000000000000000000000008152600481018590526024015b60405180910390fd5b60007f6e71edae12b1b97f4d1f60370fef10105fa2faae0126114a169c64845d6126c988888861062f8c6001600160a01b0316600090815260076020526040902080546001810190915590565b6040805160208101969096526001600160a01b0394851690860152929091166060840152608083015260a082015260c0810186905260e001604051602081830303815290604052805190602001209050600061068a82610a8b565b9050600061069a82878787610ad3565b9050896001600160a01b0316816001600160a01b0316146106fa576040517f4b800e460000000000000000000000000000000000000000000000000000000081526001600160a01b0380831660048301528b1660248201526044016105d9565b6107058a8a8a610764565b50505050505050505050565b6001600160a01b038216610754576040517fec442f05000000000000000000000000000000000000000000000000000000008152600060048201526024016105d9565b61076060008383610b01565b5050565b6104b68383836001610c44565b6001600160a01b0382166107b4576040517f96c6fd1e000000000000000000000000000000000000000000000000000000008152600060048201526024016105d9565b61076082600083610b01565b6001600160a01b038381166000908152600160209081526040808320938616835292905220547fffffffffffffffffffffffffffffffffffffffffffffffffffffffffffffffff811461086f5781811015610860576040517ffb8f41b20000000000000000000000000000000000000000000000000000000081526001600160a01b038416600482015260248101829052604481018390526064016105d9565b61086f84848484036000610c44565b50505050565b6001600160a01b0383166108b8576040517f96c6fd1e000000000000000000000000000000000000000000000000000000008152600060048201526024016105d9565b6001600160a01b0382166108fb576040517fec442f05000000000000000000000000000000000000000000000000000000008152600060048201526024016105d9565b6104b6838383610b01565b6000306001600160a01b037f00000000000000000000000000000000000000000000000000000000000000001614801561095f57507f000000000000000000000000000000000000000000000000000000000000000046145b1561098957507f000000000000000000000000000000000000000000000000000000000000000090565b6104f3604080517f8b73c3c69bb8fe3d512ecc4cf759cc79239f7b179b0ffacaa9a75d522b39400f60208201527f0000000000000000000000000000000000000000000000000000000000000000918101919091527f000000000000000000000000000000000000000000000000000000000000000060608201524660808201523060a082015260009060c00160405160208183030381529060405280519060200120905090565b60606104f37f00000000000000000000000000000000000000000000000000000000000000006005610d4b565b60606104f37f00000000000000000000000000000000000000000000000000000000000000006006610d4b565b6000610419610a98610906565b836040517f19010000000000000000000000000000000000000000000000000000000000008152600281019290925260228201526042902090565b600080600080610ae588888888610df6565b925092509250610af58282610ec5565b50909695505050505050565b6001600160a01b038316610b2c578060026000828254610b2191906112f4565b90915550610bb79050565b6001600160a01b03831660009081526020819052604090205481811015610b98576040517fe450d38c0000000000000000000000000000000000000000000000000000000081526001600160a01b038516600482015260248101829052604481018390526064016105d9565b6001600160a01b03841660009081526020819052604090209082900390555b6001600160a01b038216610bd357600280548290039055610bf2565b6001600160a01b03821660009081526020819052604090208054820190555b816001600160a01b0316836001600160a01b03167fddf252ad1be2c89b69c2b068fc378daa952ba7f163c4a11628f55a4df523b3ef83604051610c3791815260200190565b60405180910390a3505050565b6001600160a01b038416610c87576040517fe602df05000000000000000000000000000000000000000000000000000000008152600060048201526024016105d9565b6001600160a01b038316610cca576040517f94280d62000000000000000000000000000000000000000000000000000000008152600060048201526024016105d9565b6001600160a01b038085166000908152600160209081526040808320938716835292905220829055801561086f57826001600160a01b0316846001600160a01b03167f8c5be1e5ebec7d5bd14f71427d1e84f3dd0314c0f7b2291e5b200ac8c7c3b92584604051610d3d91815260200190565b60405180910390a350505050565b606060ff8314610d6557610d5e83610fc9565b9050610419565b818054610d71906112ba565b80601f0160208091040260200160405190810160405280929190818152602001828054610d9d906112ba565b8015610dea5780601f10610dbf57610100808354040283529160200191610dea565b820191906000526020600020905b815481529060010190602001808311610dcd57829003601f168201915b50505050509050610419565b600080807f7fffffffffffffffffffffffffffffff5d576e7357a4501ddfe92f46681b20a0841115610e315750600091506003905082610ebb565b604080516000808252602082018084528a905260ff891692820192909252606081018790526080810186905260019060a0016020604051602081039080840390855afa158015610e85573d6000803e3d6000fd5b5050604051601f1901519150506001600160a01b038116610eb157506000925060019150829050610ebb565b9250600091508190505b9450945094915050565b6000826003811115610ed957610ed9611315565b03610ee2575050565b6001826003811115610ef657610ef6611315565b03610f2d576040517ff645eedf00000000000000000000000000000000000000000000000000000000815260040160405180910390fd5b6002826003811115610f4157610f41611315565b03610f7b576040517ffce698f7000000000000000000000000000000000000000000000000000000008152600481018290526024016105d9565b6003826003811115610f8f57610f8f611315565b03610760576040517fd78bce0c000000000000000000000000000000000000000000000000000000008152600481018290526024016105d9565b60606000610fd683611008565b604080516020808252818301909252919250600091906020820181803683375050509182525060208101929092525090565b600060ff8216601f811115610419576040517fb3512b0c00000000000000000000000000000000000000000000000000000000815260040160405180910390fd5b6000815180845260005b8181101561106f57602081850181015186830182015201611053565b506000602082860101526020601f19601f83011685010191505092915050565b6020815260006110a26020830184611049565b9392505050565b80356001600160a01b03811681146110c057600080fd5b919050565b600080604083850312156110d857600080fd5b6110e1836110a9565b946020939093013593505050565b60008060006060848603121561110457600080fd5b61110d846110a9565b925061111b602085016110a9565b9150604084013590509250925092565b60006020828403121561113d57600080fd5b5035919050565b60006020828403121561115657600080fd5b6110a2826110a9565b7fff00000000000000000000000000000000000000000000000000000000000000881681526000602060e0602084015261119c60e084018a611049565b83810360408501526111ae818a611049565b606085018990526001600160a01b038816608086015260a0850187905284810360c08601528551808252602080880193509091019060005b81811015611202578351835292840192918401916001016111e6565b50909c9b505050505050505050505050565b600080600080600080600060e0888a03121561122f57600080fd5b611238886110a9565b9650611246602089016110a9565b95506040880135945060608801359350608088013560ff8116811461126a57600080fd5b9699959850939692959460a0840135945060c09093013592915050565b6000806040838503121561129a57600080fd5b6112a3836110a9565b91506112b1602084016110a9565b90509250929050565b600181811c908216806112ce57607f821691505b6020821081036112ee57634e487b7160e01b600052602260045260246000fd5b50919050565b8082018082111561041957634e487b7160e01b600052601160045260246000fd5b634e487b7160e01b600052602160045260246000fdfea26469706673582212205b344a42224b7c663c9b01df51de742a1f82d457a89fb4aa72201ea3b03d9a9664736f6c63430008180033",
  "linkReferences": {},
  "deployedLinkReferences": {}
}